:020000040800F2
:10000000D83000209901000853030008F9020008C5
:1000100051030008550200082109000800000000F3
:1000200000000000000000000000000001010008C6
:1000300057020008000000004501000851050008B3
:10004000B3010008B3010008B3010008B3010008C0
:10005000B3010008B3010008B3010008B3010008B0
:10006000B3010008B3010008B3010008B3010008A0
:10007000B3010008B3010008B3010008B301000890
:10008000B3010008B3010008B3010008B301000880
:10009000B3010008B3010008B3010008B301000870
:1000A000B3010008B3010008B3010008B301000860
:1000B000B505000841060008B3010008B3010008B7
:1000C000B3010008B3010008B3010008B301000840
:1000D000B3010008B5070008B3010008B301000828
:1000E000B3010008B3010008B3010008DFF80CD029
:1000F00000F09EF800480047550C0008D83000205A
:10010000224B19680868B0E8F00F80F30988BFF344
:100110006F8F4FF0000080F311884EF00D0E704786
:100120000000000006480068006880F3088862B696
:1001300061B6BFF34F8FBFF36F8F00DF00BF00BF0B
:1001400008ED00E0EFF30980BFF36F8F0F4B1A68E3
:1001500020E9F00F106008B54FF0500080F31188CF
:10016000BFF34F8FBFF36F8F01F0E6FD4FF000003C
:1001700080F31188BDE8084019680868B0E8F00FFE
:1001800080F30988BFF36F8F704700BF40000020E5
:10019000EFF3058070470000064880470648004797
:1001A000FEE7FEE7FEE7FEE7FEE7FEE7FEE7FEE727
:1001B000FEE7FEE765050008ED00000840EA0103E0
:1001C0009B0703D009E008C9121F08C0042AFAD20D
:1001D00003E011F8013B00F8013B521EF9D27047D1
:1001E000D2B201E000F8012B491EFBD27047002279
:1001F000F6E710B513460A4604461946FFF7F0FF26
:10020000204610BD30B50B460146002020220124B7
:1002100009E021FA02F59D4205D303FA02F5491BD4
:1002200004FA02F52844151EA2F10102F1DC30BDEA
:10023000064C074D06E0E06840F0010394E8070033
:1002400098471034AC42F6D3FFF754FFA0290008BA
:10025000C0290008FEE77047F0B5CC78002204F012
:100260000F03E40601D58C7823430C784FF00F0C74
:1002700014F0FF0F4FF0010E1BD005680E880EFA28
:1002800002F42640A64210D196000CFA06F725EAA1
:10029000070703FA06F5CE783D43282E02D0482EF4
:1002A00002D002E0446100E00461521C082AE5D358
:1002B00005600A88FF2A1CD94468002202F108065A
:1002C0000EFA06F50E882E40AE420ED196000CFABC
:1002D00006F7BC4303FA06F7CE783C43282E00D13C
:1002E0004561CE78482E00D10561521C082AE5D31D
:1002F0004460F0BD01617047FEE7000038B50121A0
:10030000082000F06FF84FF47040ADF800001020A6
:100310008DF8030003200D4C8DF80200694620463D
:10032000FFF79AFFA1142046FFF7E4FF611420466F
:10033000FFF7E0FF4FF480412046FFF7DBFF4FF46B
:1003400000412046FFF7D6FF38BD0000000C0140F9
:10035000FEE7704730B50F23C27801780125F2B16E
:10036000144A126801F1E02102F4E062C2F5E06291
:10037000120AC2F10404D3404278A24084781C409F
:100380001443220181F80024007800F01F018D4001
:100390004009800000F1E020C0F8005130BD01F0BC
:1003A0001F0085404809800000F1E020C0F880511E
:1003B00030BD00000CED00E002490843024908602E
:1003C000704700000000FA050CED00E0044A002927
:1003D000D16901D0014300E08143D1617047000041
:1003E00000100240044A0029916901D0014300E055
:1003F00081439161704700000010024030B5204AEF
:100400005168204B11F00C0103D0042901D00829B8
:1004100001D0036012E05168536801F470114FF08D
:10042000020413F4803F04EB914102D053689B0314
:1004300001D5154B00E0134B5943016051680F2360
:1004400003EA1111114B5C5C0168E14041605468A2
:10045000072505EA14241C5D21FA04F4846054681D
:1004600005EAD4241B5DD940C1605268032303EA26
:100470009232064B1B1F9A5CB1FBF2F1016130BD59
:100480000010024000127A0000093D0030000020F8
:100490000CB50022264800920192016841F4803197
:1004A00001604FF4A063016801F4003101910099EB
:1004B000491C0091019911B900999942F3D1016841
:1004C000890333D5012101911A490A6842F01002CB
:1004D0000A600A6822F003020A600A6842F0020217
:1004E0000A604168416041684160416841F480614F
:1004F0004160416821F47C114160416841F4E81198
:100500004160016841F08071016001688901FCD59A
:10051000416821F003014160416841F002014160FE
:100520004168C1F381010229FAD10CBD01920CBDD1
:1005300000100240002002404FF0E021042808692A
:1005400003D020F004000861704740F00400FAE78F
:1005500010B501F0C1FF012803D0BDE8104001F043
:10056000A3BC10BD0F4810B5016841F00101016046
:1005700041680D4A1140416001680C4A1140016018
:10058000016821F480210160416821F4FE0141608D
:100590004FF41F018160FFF77BFF05494FF00060BA
:1005A000086010BD001002400000FFF8FFFFF6FEDB
:1005B00008ED00E010B501218C07204600F097F807
:1005C00010B104A000F0AEF92046BDE810400121B2
:1005D00000F080B874696D32206F75747075742086
:1005E0000D0A00007FB50D46044601210846FFF7BD
:1005F000EDFEADF80440ADF8005000244FF080450A
:10060000ADF80640ADF802406946284600F084F88F
:1006100001221146284600F076F81C218DF80C10B6
:1006200005208DF80D008DF80E4001208DF80F008B
:1006300003A8FFF78FFE0121284600F04EF87FBD8A
:1006400010B5074C0121204600F051F810B105A06B
:1006500000F068F92046BDE81040012100F03AB8EA
:100660000004004074696D33206F757470757420D8
:100670000D0A00007FB50D46044601210220FFF758
:10068000A5FEADF80440ADF800500024104DADF8C3
:100690000640ADF802406946284600F03DF80122C8
:1006A0001146284600F02FF81D218DF80C1004206B
:1006B0008DF80D008DF80E4001208DF80F0003A875
:1006C000FFF748FE0121284600F007F87FBD000033
:1006D00000040040C943018270470029018802D00C
:1006E00041F0010101E021F0010101807047024663
:1006F0000020138A92890B4202EA010202D0002AEA
:1007000000D001207047002A828901D00A4300E00E
:100710008A4382817047000030B502881B4C1C4D13
:10072000A0420DD0A8420BD0B0F1804F08D0194B99
:10073000984205D0184B984202D0184B984203D1EA
:1007400022F070034A881A43154B984206D0154B85
:10075000984203D022F44073CA881A4302808A88E0
:1007600082850A880285A0420AD0A84208D00E4A93
:10077000904205D00D4A904202D00D4A904201D1DC
:10078000097A01860121818230BD0000002C0140E0
:10079000003401400004004000080040000C00400C
:1007A000001000400014004000400140004401409F
:1007B0000048014070B5154C40F22551204600F02C
:1007C00035F800280ED0204600F0A6F8104AC1B235
:1007D0001088030406D444044FF0000306D50A2908
:1007E00001D0138070BD40F400400DE00D2909D008
:1007F000C0F30D04074D401C80B229551080C72856
:10080000EFD870BD40F48040108070BD00380140CA
:1008100024000020C00000200029818902D041F47A
:10082000005101E021F400518181704770B501F061
:100830001F0501260024C1F3421306FA05F2012B1D
:100840000FD0022B0FD0838A4FEA11210088134268
:1008500006FA01F600EA060001D000B101242046A4
:1008600070BD8389F0E7038AEEE7000030B50446E7
:10087000008A85B00D464CF6FF710840E9880143B7
:100880002182A0894EF6F3110840A9882A891143D4
:100890006A8902431143A181A08A4FF6FF410840B3
:1008A000A9890143A1826846FFF7A8FD194884423F
:1008B00001D1039800E00298A189090400EBC0016E
:1008C00001EB0010296801D5490000E08900B0FB68
:1008D000F1F06422B0FBF2F109010B096FF0180589
:1008E0006B4300EB8300A3891D044FF0320306D550
:1008F00003EBC000B0FBF2F000F0070005E003EBF3
:100900000010B0FBF2F000F00F000843208105B0AA
:1009100030BD0000003801408088C0F308007047F7
:10092000FEE700000FB4054B10B503A9044A029876
:1009300000F018F810BC5DF814FB0000B50B0008BF
:100940002800002002E008C8121F08C1002AFAD1BE
:1009500070477047002001E001C1121F002AFBD13F
:10096000704700002DE9FF4F8BB09A460F460546B1
:10097000002606E025280BD052460D9990476D1CA5
:10098000761C28780028F5D10FB03046BDE8F08FEE
:100990000024A0460122604900E0044315F8013F0D
:1009A000203B02FA03F00842F7D128782E2817D10D
:1009B00015F8010F44F004042A280ED06FF02F021E
:1009C0002878A0F1300109290AD808EB880102EB48
:1009D000410100EB01086D1CF2E757F8048B6D1C18
:1009E000287869283ED006DC0028CDD063280BD0BB
:1009F000642804D136E0732810D075284BD05246B5
:100A00000D999047761C85E017F8040B8DF80000CF
:100A100000208DF80100E946012003E057F8049B0F
:100A20004FF0FF3061074FF0000401D40AE0641C6E
:100A300044450DDA8442FADB19F804100029F6D196
:100A400006E0641C8442FCDB19F804100029F8D18C
:100A5000264404E019F8010B52460D999047641E94
:100A6000F8D257E001CF4FF00A0B002802DA4042DB
:100A70002D2102E0210504D52B218DF82410012120
:100A800003E0E10705D02021F7E70DF120090891E7
:100A90000CE00021F9E701CF4FF00A0BF9E75946C6
:100AA000FFF7B0FB01F1300209F8012D0028F6D163
:100AB000ADEB090000F1200B600701D44FF00108F5
:100AC000D84502DDA8EB0B0000E0002080460024A2
:100AD00006E009A85246005D0D999047641C761CFB
:100AE00008988442F5DB04E0302052460D99904787
:100AF000761CB8F10001A8F10108F5DC05E019F851
:100B0000010B52460D999047761CBBF10001ABF1E9
:100B1000010BF4DC6D1C34E70928010010B504203A
:100B2000FFF70AFD0C480D490D4A0068B0FBF1F3D0
:100B3000B0FBF1F14FF47A70414313700120508003
:100B40004FF0E020026942F0020202614161016956
:100B500041F00101016110BD0C00002040420F0076
:100B60002000002070B54FF0E02500216C69094A93
:100B7000AB6912785043AA699A42FCD002D2A3EB27
:100B8000020302E0A4EB02063344194413468142F7
:100B9000F1D370BD2000002070B5054600244FF44D
:100BA0007A7603E03046FFF7DDFF641CAC42F9D3F0
:100BB00070BD000004490A885206FCD5024AC1B241
:100BC000121D11807047000000380140144C154D73
:100BD00041F288364FF47A772068401C206005285F
:100BE00012D111A0FFF79EFE502080F31188BFF3B1
:100BF0004F8FBFF36F8F3046FFF7CEFF10A0FFF788
:100C000091FE002080F31188D5F8B40130B10020A6
:100C1000C5F8B401384600F03DFFDDE70120F7E7F5
:100C200000000020008021427368757420646F7793
:100C30006E2073657269616C20706F72740D0A00AA
:100C40006F70656E2073657269616C20706F72746D
:100C50000D0A00007CB54FF44070FFF7ADFBFFF7C5
:100C60005DFFFFF74BFB4FF4E13000F039FD41F63B
:100C70001F4442F20F7521462846FFF7FBFC214630
:100C80002846FFF7AFFC07490120CDE90001020229
:100C9000002305A1074801F0F3FB00F0FDFF002051
:100CA0007CBD00000400002073746172745F746185
:100CB000736B00009D1600082DE9F041184E0F4699
:100CC0000446F5683068001D00F054FD38B93068FE
:100CD00090F82C1001208840316981433161601CFB
:100CE00007D137B13168BDE8F0410E48091D00F069
:100CF0007ABD30682C44AC424460316805D2F06B58
:100D0000BDE8F041091D00F056BDB06B091D00F0B3
:100D100052FDB06A844200D2B462BDE8F0810000A6
:100D200040000020980400202DE9F041054600F025
:100D300067FD2D4EB068401CB06030682B4F10B17D
:100D4000706930B32BE03560B068012827D10024EA
:100D500004EB840007EB800000F01FFD641C202CD6
:100D6000F6D3234800F019FD2148143000F015FD9A
:100D70001F48283000F011FD1D483C3000F00DFDEB
:100D80001B48503000F009FD1948B0631430F0637F
:100D900005E03068E96AC06A884200D83560706A48
:100DA0000121401C70626864E86A32698140114325
:100DB000316100EB800007EB8000291D00F013FD7E
:100DC00000F05AFD706900280CD03068E96AC06AEA
:100DD000884207D207494FF080500860BFF34F8F19
:100DE000BFF36F8FBDE8F08140000020C8010020F4
:100DF0004804002004ED00E010B500F001FD0E4CA9
:100E00002068A0B90D4800F0C8FC0C48143000F070
:100E1000C4FC0A48E0601430206100221021052043
:100E200001F058F8206010B105A100F0FFFDBDE809
:100E3000104000F021BD000080000020AC04002024
:100E4000546D72510000000030B4026C0B46002A51
:100E50000BD0C1681144C1608468A14201D301680C
:100E6000C16030BC1846FFF7A9B930BC70472DE906
:100E7000F041856B174604460026026C82B1C7B16B
:100E8000E068FFF79BF9E168206C091AE1602268CD
:100E9000914202D2A168081AE060022F16D017E032
:100EA0002068A8B9A06801F0A1FB06460020A06058
:100EB0000EE06068FFF782F9216C606808446060AA
:100EC000A168884204D32068606001E005B16D1E0E
:100ED0006D1CA5633046BDE8F08110B50446006B7B
:100EE00000F0FCFC2046BDE8104000F0F7BC00001C
:100EF00010484FF42051420706D0C01D0D4920F084
:100F00000700411AC1F520510B4A00230144C2E9F0
:100F100000030839183A21F0070111604B600B609B
:100F20000B1AC0E9001393604FF00040536050610A
:100F300070470000D4040020AC000020134E144D74
:100F4000A6F52F774FF08058DFF8489011E000F0B9
:100F500057FCF068C468201D00F00CFCA868401E17
:100F6000A8606868401E686000F086FC2046FFF7B5
:100F7000B4FF68680028EAD138680128F9D9C9F8AF
:100F80000080BFF34F8FBFF36F8FF2E78404002020
:100F90004000002004ED00E02DE9F05FDDE90B9456
:100FA0000E461746834691009A460A9DA522206B5D
:100FB000FFF716F96FF00301206B01EB870108447E
:100FC00020F00707780705D040F25E321CA121A06F
:100FD000FFF7A8FC4FF0000866B100202218315C32
:100FE00082F83410315C11B1401C1028F6D384F81B
:100FF000438001E084F83480202D00D31F25E56272
:10100000C4E91358201D00F0D3FB04F1180000F0D0
:10101000CFFB2461C5F120006462A061C4F8548054
:1010200084F8588052465946384600F025FB206027
:10103000B9F1000F01D0C9F80040BDE8F09F0000F1
:101040002E2E5C4672656552544F535C7461736B0F
:10105000732E63004572726F723A25732C25640DEE
:101060000A00000030B5114900E011460A688242CA
:10107000FBD34B685C18844203D140681844486035
:10108000084643681C18944209D1084C183C24684F
:10109000A24209D052681A4442600A68126802608B
:1010A000814200D0086030BD0460F9E7AC00002048
:1010B00070B5002441600B4D0061914206D8D11AF1
:1010C0008269914206D2011D286907E09A4203D243
:1010D000994201D3012403E0011DE86800F06BFB95
:1010E000204670BD8000002010B5044600F088FB4B
:1010F000A06B20B1002400F0BFFB204610BD0124EE
:10110000F9E70000F1B500980026846C2CB940F690
:101110009A3219A11DA0FFF705FCA06BE16B884274
:1011200005D340F69B3214A118A0FFF7FBFBA06B80
:10113000E16B88421ED294F9455000226946204650
:10114000FFF795FE0646681C02D07F2D09D00EE001
:10115000606A78B104F1240001F09EFA50B10126D2
:1011600008E040F6BB3204A108A0FFF7DBFB6D1CD2
:1011700084F845503046F8BD2E2E5C4672656552A7
:10118000544F535C71756575652E63004572726FBF
:10119000723A25732C25640D0A000000F8B5054647
:1011A00017480E46C068C068C468201D00F0E2FA07
:1011B00094F82800410718D5A0692B4641193246FA
:1011C0002046FFF775FFA0B10020034601460090BE
:1011D0002A46204601F09CFB58B90A494FF4057293
:1011E00001F11800FFF79EFB03E020F0010084F8F6
:1011F0002800216A01B02046BDE8F0400847000001
:10120000800000207428000870B586B03D4E70E064
:101210000198002806DADDE90301029A9047019857
:10122000002866DB039C606910B1201D00F0A2FA63
:1012300005A800F0C1F8054601980A2859D2DFE850
:1012400000F00505052F354C05052F3594F82800CD
:101250002A4640F0010084F828000298A16903465C
:1012600001442046FFF724FF002842D0216A20468F
:10127000884794F8280040073BD50020009002984A
:10128000A169002342181946204601F041FB0028BD
:101290002FD140F236321CA121A0FFF743FB28E0FA
:1012A00014F8280F20F00100207022E094F82800A4
:1012B00040F0010084F828000298A06128B940F2AB
:1012C0004F3211A116A0FFF72DFBA0692B46411943
:1012D0001A462046FFF7ECFE0BE094F82800810741
:1012E00003D4204600F0FAFA03E020F0010084F86D
:1012F0002800002201A9306800F0CEFF002887D125
:1013000006B070BD800000202E2E5C4672656552CE
:10131000544F535C74696D6572732E630000000056
:101320004572726F723A25732C25640D0A00000015
:10133000F8B50D46064600F0F7FC684600F03CF8AC
:101340000446009810B101F0F3F9F8BD1148ADB1B1
:1013500001690968D9B10025311B2A46006800F0EF
:1013600077FB01F0E5F90028EFD10B494FF08050F1
:101370000860BFF34F8FBFF36F8FF8BDA642EBD865
:1013800001F0D6F921463046FFF708FFF8BD0125E8
:10139000E2E700008000002004ED00E00548816BDA
:1013A000096821B1816BC9680968816270474FF093
:1013B000FF31FAE74000002070B5054601F09AF8C9
:1013C000064E0446B068844203D200F009F80120BA
:1013D00000E0002028602046B46070BD800000203E
:1013E000F8B5194E27E0C068C4680568201D00F0F4
:1013F000C1F9216A2046884794F8280040071AD589
:10140000A0692844A84206D924616060211DF068C3
:1014100000F0D1F90FE000200346014600902A4673
:10142000204601F075FA30B9084940F2A93201F1BD
:101430001800FFF777FAF06801680029D3D1316905
:10144000C6E90310F8BD00008000002074280008E1
:1014500008484068401C04D0CC2207A111A0FFF727
:1014600061FA502080F31188BFF34F8FBFF36F8F65
:10147000FEE70000B40000202E2E5C467265655227
:10148000544F535C706F727461626C655C52564469
:10149000535C41524D5F434D335C706F72742E63E9
:1014A000000000004572726F723A25732C25640D9E
:1014B0000A000000084CE068016839B1002139B128
:1014C0000020FFF735FFFFF79FFEF4E70121F6E765
:1014D000C0680068F5E70000800000202DE9F041B9
:1014E000044600F08DF994F9455004F124060FE00C
:1014F000A06C18B12046FFF705FE04E0606A48B111
:10150000304601F0C9F808B100F068FB6D1E6DB2FD
:10151000002DEDDC4FF0FF3684F8456000F0ACF9AB
:1015200000F06EF994F9445004F1100709E02069C5
:1015300048B1384601F0B0F808B100F04FFB6D1E1D
:101540006DB2002DF3DC84F84460BDE8F04100F09A
:1015500093B900002DE9F0410446002600F0E4FBB9
:10156000364F386808B9FFF7C3FC7869044258D190
:10157000002C56D004F10805A54252D968070ED0B8
:1015800005F00700C0F108002844A84249D90546E3
:10159000400704D09A222AA133A0FFF7C3F9002DF7
:1015A0003FD0786885423CD8244918310846046801
:1015B00001E0214604466068A84202D22068002863
:1015C000F7D13868B84684422BD00E68206808608E
:1015D00060680836401B10280ED96719780704D0B8
:1015E000CD2217A120A0FFF79DF96068401B78600D
:1015F00038466560FFF736FD6168D8F8040042465A
:10160000401AC8F80400D8F80830984200D2906018
:10161000506901430020C4E90001D068401CC8F8AB
:101620000C0001F085F8700705D04FF4877204A113
:101630000DA0FFF777F93046BDE8F0819400002057
:101640002E2E5C4672656552544F535C706F7274F7
:1016500061626C655C4D656D4D616E675C6865616E
:10166000705F342E630000004572726F723A25730A
:101670002C25640D0A00000010B5031F4FF0807484
:101680001C601B1F21F001011960191F024B0B6028
:10169000143940380A6010BD511400081CB500F020
:1016A000AFF809490220CDE90001C201002307A1DA
:1016B0000A4800F0E5FE04480838406800F020FAC7
:1016C000BDE81C4000F0D8B808000020696E7465C1
:1016D00072727570745F7461736B0000CD0B0008DB
:1016E00070B5054686B0012144F20400FEF77AFE8B
:1016F0004FF40070ADF8100003248DF8124018204C
:101700001A4E8DF8130004A93046FEF7A5FD3015DA
:10171000ADF8100004208DF8130004A93046FEF740
:101720009BFD25208DF814008DF815408DF816408E
:1017300001208DF8170005A8FEF70CFE0020ADF87B
:101740000400ADF80600ADF80800ADF80C000C2060
:10175000074CADF80A00009569462046FFF786F869
:1017600001212046FFF758F806B070BD000801407F
:1017700000380140D0E9013201699A60D0E90123C3
:101780005A604A68824201D182684A60002202613E
:101790000868401E08600868704700F108014FF0B3
:1017A000FF32C0E90112C160016100210160704790
:1017B00000210161704730B50C68621C02D000F155
:1017C000080202E0026904E01A4653681D68A54257
:1017D000FAD953684B6099608A605160086101686A
:1017E000491C016030BD42684A6093688B60936811
:1017F0005960916008610168491C016070470000F0
:10180000502080F31188BFF34F8FBFF36F8F0949CA
:101810004868401C486001280AD10748006810F059
:10182000FF0F05D040F2711204A10FA0FFF77AB8A4
:1018300070470000B400002004ED00E02E2E5C464E
:1018400072656552544F535C706F727461626C655F
:101850005C525644535C41524D5F434D335C706F54
:1018600072742E63000000004572726F723A257325
:101870002C25640D0A00000010B5084C606828B9DA
:101880004FF4BC7206A111A0FFF74CF86068401E2F
:10189000606001D180F3118810BD0000B400002009
:1018A0002E2E5C4672656552544F535C706F727495
:1018B00061626C655C525644535C41524D5F434DCE
:1018C000335C706F72742E63000000004572726F9B
:1018D000723A25732C25640D0A00000070B50028AB
:1018E0002DD0174DA0F1080460686969084205D140
:1018F0004FF4917213A11DA0FFF714F8206828B1CE
:1019000040F223120FA119A0FFF70CF86068696973
:10191000084214D02268002A11D18843606000F088
:1019200003FA60686968084468602046FFF79AFB1C
:101930002869401C2861BDE8704000F0F9BE70BD08
:10194000940000202E2E5C4672656552544F535C05
:10195000706F727461626C655C4D656D4D616E6730
:101960005C686561705F342E630000004572726FC1
:10197000723A25732C25640D0A0000004FF0E02018
:1019800000210161816105494FF47A720968B1FB58
:10199000F2F1491E41610721016170470C000020EE
:1019A00010B5FEF7F5FB104C10280CD300F1E02029
:1019B00090F8F0032178884205D240F2B9220BA1B9
:1019C00015A0FEF7AFFF18480068A16800F4E060BA
:1019D000884207D9BDE8104040F2C92203A10EA0F9
:1019E000FEF7A0BF10BD0000B40000202E2E5C4604
:1019F00072656552544F535C706F727461626C65AE
:101A00005C525644535C41524D5F434D335C706FA2
:101A100072742E63000000004572726F723A257373
:101A20002C25640D0A0000000CED00E010B5074BFA
:101A3000002253F832401CB1521C082AF9D310BDC1
:101A400043F8321003EBC201486010BD880100204A
:101A500070B515460E460446FFF7D2FE94F94410C1
:101A60000020491C01D184F8440094F94510491C18
:101A700001D184F84500FFF7FFFEA06B28B92A4684
:101A8000314604F1240000F0D9F82046BDE870404A
:101A9000FFF724BD10B5040012D00E49496B29B1DF
:101AA00040F23F520CA111A0FEF73CFF00F03CF9C0
:101AB00000212046FFF700F900F03AFE002807D188
:101AC0000E494FF080500860BFF34F8FBFF36F8F08
:101AD00010BD0000400000202E2E5C46726565524D
:101AE000544F535C7461736B732E63004572726F55
:101AF000723A25732C25640D0A00000004ED00E005
:101B000070B50446FFF77CFE234D04B92C68201DF8
:101B1000FFF730FE58B9E06A204A00EB800152F826
:101B2000211021B901218140286988432861A06AD8
:101B300018B104F11800FFF71DFE686A401C6862C6
:101B40002868844207D1211D1548FFF74CFE6868BC
:101B5000401C686007E0A868401EA8602046FFF7A8
:101B6000BCF9FFF71BFCFFF787FE6869002812D05D
:101B7000286884420FD1686B28B140F2D24209A193
:101B80000DA0FEF7CFFE10494FF080500860BFF364
:101B90004F8FBFF36F8F70BD40000020C801002041
:101BA000840400202E2E5C4672656552544F535CAF
:101BB0007461736B732E63004572726F723A257392
:101BC0002C25640D0A00000004ED00E002490A6AB9
:101BD0000260C9684160704740000020014901204F
:101BE000C86170474000002070B50D46040005D163
:101BF00040F6114207A10CA0FEF794FE0E480168C2
:101C000020461831FFF7D7FD2846BDE87040012176
:101C1000FFF752B82E2E5C4672656552544F535CE6
:101C20007461736B732E63004572726F723A257321
:101C30002C25640D0A0000004000002070B51446F9
:101C40000E46050005D14FF4446209A10DA0FEF730
:101C500069FE1048016828461831FFF7C4FD0CB131
:101C60004FF0FF3621463046BDE87040FFF724B8FC
:101C70002E2E5C4672656552544F535C7461736BD3
:101C8000732E63004572726F723A25732C25640DB2
:101C90000A000000400000207CB516480025CDE970
:101CA00000502B46822214A1154800F0E9FB114C8C
:101CB0002C3C012803D100F0F1FD012802D0401C8A
:101CC00010D015E0502080F31188BFF34F8FBFF381
:101CD0006F8F4FF0FF30A06201206061E56000F07F
:101CE00069F805E040F6360206A10BA0FEF71AFEE1
:101CF000206B7CBD6C00002049444C450000000076
:101D00003D0F00082E2E5C4672656552544F535CA1
:101D10007461736B732E63004572726F723A257330
:101D20002C25640D0A0000000248416B491C4163E8
:101D3000704700004000002070B5134D686B10B173
:101D40000120E86170BD0020E86128690F4EB0FAFB
:101D500080F0C0F11F0000EB800456F8240028B981
:101D600040F6F7320AA10FA0FEF7DCFD06EB840077
:101D700000F10802416849684160914201D1496817
:101D80004160C868286070BD40000020C801002084
:101D90002E2E5C4672656552544F535C7461736BB2
:101DA000732E63004572726F723A25732C25640D91
:101DB0000A0000007CB52A4D28780190FF20287089
:101DC00028788DF800009DF800009DF8001000F0C4
:101DD000F000884205D040F21D1222A12CA0FEF78F
:101DE000A1FD9DF800002E4C00F05000207007204F
:101DF000A06006E0401EA0609DF8000040008DF845
:101E000000009DF800000006A068F3D403280ED05F
:101E100040F2311213A11EA0FEF784FDA068032832
:101E200005D04FF49D720FA119A0FEF77BFD207A1B
:101E3000000200F4E060A060019828701948016871
:101E400041F470010160016841F070410160FFF7E9
:101E500095FD00206060FEF765F900207CBD000064
:101E600000E400E02E2E5C4672656552544F535CD0
:101E7000706F727461626C655C525644535C41527F
:101E80004D5F434D335C706F72742E630000000031
:101E90004572726F723A25732C25640D0A0000009A
:101EA000B400002020ED00E010B5502080F3118830
:101EB000BFF34F8FBFF36F8F00F022FB18B10449BF
:101EC0004FF080500860002080F3118810BD0000A2
:101ED00004ED00E02DE9F04117460E46050005D15E
:101EE0004FF4C37219A11EA0FEF71CFD05FB06F4FA
:101EF0004EB1B4FBF6F0A84205D04FF4C77213A15F
:101F000017A0FEF70FFD04F15408A04505D840F2D4
:101F100091120EA112A0FEF705FD4046FFF71AFB35
:101F200004000ED004F154006EB12060C4E90F56D5
:101F30002046012100F01CF884F850700021204652
:101F4000A164BDE8F0812460F0E700002E2E5C461D
:101F500072656552544F535C71756575652E6300EB
:101F60004572726F723A25732C25640D0A000000C9
:101F700070B50D46040005D140F20D121CA121A040
:101F8000FEF7D0FCFFF73CFCD4E90F20216802FBF0
:101F90000011A1600021A163216861600A46D4E9B3
:101FA0000F01401E00FB0121E16021464FF0FF3090
:101FB00001F8440F487004F110004DB1FFF7EDFB3C
:101FC00004F12400FFF7E9FBFFF756FC012070BD88
:101FD00021690029F8D000F05FFB0028F4D00D49FA
:101FE0004FF080500860BFF34F8FBFF36F8FEBE768
:101FF0002E2E5C4672656552544F535C7175657543
:10200000652E63004572726F723A25732C25640D3C
:102010000A00000004ED00E02DE9FF4F83B01F46E9
:102020008B4604004FF0000605D14FF4437252A1D5
:1020300056A0FEF777FCBBF1000F07D1206C28B14A
:1020400040F20D324CA151A0FEF76CFC022F08D1DA
:10205000E06B012805D040F20E3247A14BA0FEF7FD
:1020600061FC00F039FA38B9059828B140F2113214
:1020700041A146A0FEF756FC4FF0000A4FF08058F1
:10208000DFF81891FFF7BCFBA06BE16B884205D32A
:10209000022F03D0059818B32EB328E0A56B3A465B
:1020A00059462046FEF7E3FEA16C31B1022F00D164
:1020B00085B92046FFF726F805E0616A19B104F1F9
:1020C000240000F0E9FA28B1C9F80080BFF34F8F6F
:1020D000BFF36F8FFFF7D0FB012007B0BDE8F08F93
:1020E000FFF7CAFB21E06846FFF770FD0126FFF706
:1020F000C3FBFFF719FEFFF783FB94F94400401C74
:1021000001D184F844A094F94500401C01D184F821
:1021100045A0FFF7B1FB05A9684600F065F930B1AD
:102120002046FFF7DBF900F003FB0020D5E7FFF7BF
:1021300067FBA06BE16B884201D1012500E000251F
:10214000FFF79AFB95B104F110000599FFF74CFDDC
:102150002046FFF7C3F900F0EBFA002892D1C9F846
:102160000080BFF34F8FBFF36F8F8BE72046FFF7E1
:10217000B5F900F0DDFA85E72E2E5C4672656552F2
:10218000544F535C71756575652E63004572726FAF
:10219000723A25732C25640D0A00000004ED00E05E
:1021A0002DE9F0471F4616468A46040005D14FF434
:1021B000787230A134A0FEF7B5FBBAF1000F07D159
:1021C000206C28B140F2E1322AA12FA0FEF7AAFB31
:1021D000022F08D1E06B012805D040F2E23225A1A0
:1021E00029A0FEF79FFBFFF7DBFB5021EFF31180E7
:1021F00081F31188BFF34F8FBFF36F8F8046A06BC1
:10220000E16B884206D3022F04D0002088F31188A6
:10221000BDE8F08794F94550D4F838903A465146D5
:102220002046FEF724FE681C02D07F2D16D01BE04E
:10223000A06C012540B1022F02D1B9F1000F16D1D7
:102240002046FEF75FFF05E0606A80B104F12400DC
:1022500000F022FA58B156B1356008E040F26B4206
:1022600004A109A0FEF75EFB6D1C84F84550012017
:10227000CCE700002E2E5C4672656552544F535CCD
:1022800071756575652E63004572726F723A2573BC
:102290002C25640D0A0000002DE9F74783B08A461B
:1022A00004004FF0000605D140F22F5244A149A08E
:1022B000FEF738FBBAF1000F07D1206C28B140F2CD
:1022C00033523FA143A0FEF72DFB00F005F938B9CA
:1022D000059828B14FF4A76239A13EA0FEF722FB72
:1022E00000274FF08058DFF8FC90FFF789FAA56BC4
:1022F000C5B151462046FEF7A7FD6D1EA5632069B6
:1023000050B104F1100000F0C7F928B1C9F80080FD
:10231000BFF34F8FBFF36F8FFFF7AEFA012006B008
:10232000BDE8F087059808B11EB106E0FFF7A4FAF2
:1023300027E06846FFF74AFC0126FFF79DFAFFF702
:10234000F3FCFFF75DFA94F94400401C01D184F8D6
:10235000447094F94500401C01D184F84570FFF7A2
:102360008BFA05A9684600F03FF8002820460AD0FD
:10237000FFF7B4F800F0DCF92046FEF7B5FE0028C0
:10238000B3D00020CBE7FEF7AFFE90B104F12400FC
:102390000599FFF729FC2046FFF7A0F800F0C8F9DF
:1023A0000028A2D1C9F80080BFF34F8FBFF36F8F11
:1023B0009BE72046FFF792F800F0BAF995E7000096
:1023C0002E2E5C4672656552544F535C717565756F
:1023D000652E63004572726F723A25732C25640D69
:1023E0000A00000004ED00E02DE9F0410C46050074
:1023F00005D140F6EB4218A11CA0FEF793FA2CB9C8
:1024000040F6EC4214A119A0FEF78CFAFFF7F8F998
:102410001A4EF1686B682268C81A571C0AD02F68D8
:10242000D6F820C00026674506D08B4204D8012587
:1024300026600BE0002509E0824205D9101A2060D1
:102440002846FFF7C3FBF5E701252660FFF714FADE
:102450002846BDE8F08100002E2E5C46726565526C
:10246000544F535C7461736B732E63004572726FCB
:10247000723A25732C25640D0A00000040000020EC
:102480002DE9FF5F8346DDE90E87994616468A46A9
:102490009000FFF75FF805001AD05C20FFF75AF8AC
:1024A000040012D025630021CDE90241CDE9008767
:1024B0004B46324651465846FEF76EFD2046FEF723
:1024C00033FC012004B0BDE8F09F2846FFF706FA70
:1024D0004FF0FF30F6E700000548416919B1406B45
:1024E00018B100207047012070470220704700009B
:1024F000400000200148C0687047000040000020F4
:102500002DE9F0412E4F0026786B28B1B869401CA8
:10251000B8613046BDE8F081FD686D1CFD6011D1E9
:10252000B86B006828B140F6BC2226A12AA0FEF7AD
:10253000F9F9B86BF96BB963F863386A401C386213
:10254000FEF72CFFB86ADFF8A080854209D3B86B8C
:102550000068A0B1B86BC068C4686068854211D2D9
:10256000B8623868C06A00EB800158F82100012881
:1025700000D90126F8690028CBD00126C9E74FF021
:10258000FF30EDE7201DFFF7F5F8A06A18B104F160
:102590001800FFF7EFF8E06A01213A698140114322
:1025A000396100EB800108EB8100211DFFF71BF969
:1025B000E06A3968C96A8842C9D30126C7E70000C2
:1025C000400000202E2E5C4672656552544F535CCD
:1025D0007461736B732E63004572726F723A257368
:1025E0002C25640D0A000000C801002070B504000D
:1025F0004FF0000638D01D4D2868844205D041F2C6
:102600003D021BA11FA0FEF78DF9206D28B941F2F4
:102610003E0217A11BA0FEF785F9206D401E206524
:10262000E26CE16A91421FD0F0B9201DFFF7A2F8D9
:10263000012130B994F82C0001FA00F22869904386
:102640002861E06CE062C0F12000A061E06A2A69C4
:102650008140114329610F4900EB800001EB8000AC
:10266000211DFFF7C0F80126304670BD4000002054
:102670002E2E5C4672656552544F535C7461736BC9
:10268000732E63004572726F723A25732C25640DA8
:102690000A000000C80100202DE9F041C068C468AC
:1026A0002CB94FF4476216A11AA0FEF73BF904F1CA
:1026B00018000746FFF75EF81A4D686B012660B1F7
:1026C00039461948FFF78FF8E06A2968C96A8842D5
:1026D00013D90120EE61BDE8F081201DFFF74AF813
:1026E000E06A2A6906FA00F1114329610F4900EBFB
:1026F000800001EB8000211DE4E70020EBE70000F3
:102700002E2E5C4672656552544F535C7461736B38
:10271000732E63004572726F723A25732C25640D17
:102720000A0000004000002070040020C8010020C2
:102730002DE9F0472B4D00242746686B28B940F659
:10274000A90229A12DA0FEF7EDF8FFF759F8686B53
:10275000401E6863686BE8BBA8682C490126C8B3B3
:10276000A1F52A798846D8F80010E9B1D8F80C000C
:10277000C46804F11800FEF7FDFF201DFEF7FAFF04
:10278000E06A2A6906FA00F11143296100EB800131
:1027900009EB8100211DFFF726F8E06A2968C96A64
:1027A0008842E0D3EE61DEE70CB1FEF7F7FDAC69DD
:1027B0003CB1FFF7A5FE00B1EE61641EF9D1002027
:1027C000A861E86930B11249012738070860BFF3F2
:1027D0004F8F00E001E0BFF36F8FFFF74DF83846F1
:1027E000BDE8F087400000202E2E5C4672656552E1
:1027F000544F535C7461736B732E63004572726F38
:10280000723A25732C25640D0A0000007004002024
:1028100004ED00E02DE9F0470746994616460D46BF
:102820002C20DDF820A0FEF795FE04001ED0B8464F
:1028300000204F4684F82800D1462DB940F25F129F
:102840000CA112A0FEF76EF8FEF7D6FA04F11801FB
:10285000C4F8008081E8A002201DFEF7A9FF2EB178
:1028600094F8280040F0040184F828102046BDE8C0
:10287000F08700002E2E5C4672656552544F535C03
:1028800074696D6572732E63000000004572726F8B
:10289000723A25732C25640D0A0000001CB5002433
:1028A000FEF7AAFA0C48006868B10B491F20091D01
:1028B000CDE9000100234FF4827208A10948FFF717
:1028C000DFFD040005D140F20D1207A10CA0FEF7B8
:1028D00029F820461CBD000080000020546D7220A5
:1028E00053766300B51400082E2E5C46726565525F
:1028F000544F535C74696D6572732E630000000061
:102900004572726F723A25732C25640D0A0000001F
:102910002DE9FF47DDF830A0994690460D460600A8
:102920004FF0000705D14FF4C17212A117A0FDF7B7
:10293000F9FF1A4C206880B1CDE900580296062DA7
:1029400011DAFFF7C9FD02284FF0000309D0002279
:1029500069462068FFF760FB074604B03846BDE8CB
:10296000F0875246F4E700234A466946FFF718FC11
:10297000F2E700002E2E5C4672656552544F535CA0
:1029800074696D6572732E63000000004572726F8A
:10299000723A25732C25640D0A0000008000002087
:1029A000C029000800000020C00000004409000801
:1029B000802A0008C00000201830000054090008D8
:1029C00000000000000000000000000000A24A0417
:1029D00000000000000000000102030406070809CF
:1029E00000000000000000000000000002040608D3
:1029F00000000000010203040102030406070809A5
:102A000000000000000000000000000000000000C6
:102A100000000000000000000000000000000000B6
:102A200000000000000000000000000000000000A6
:102A30001F00000000000000000000000000000077
:102A40000000000000000000000000000000000086
:102A50000000000000000000000000000000000076
:102A60000000000000000000000000000000000066
:102A70000000000000000000AAAAAAAA00000000AE
:04000005080000ED02
:00000001FF
